:1000000000010010D5000000C1000000C500000084
:1000100000000000000000000000000000000000E0
:1000200000000000000000000000000000000000D0
:100030000000000000000000C9000000CD0000002A
:10004000D1000000D100000000000000D10000003D
:10005000D1000000D10000000000000000000000FE
:10006000D1000000D10000005D020000D1000000BE
:10007000D1000000D100000000000000D10000000D
:100080000000000000000000000000000000000070
:100090000000000000000000000000000000000060
:1000A000D1000000D1000000D1000000D10000000C
:1000B000D1000000D1000000D1000000D1000000FC
:1000C00000B5FEE700B5FEE700B5FEE700B5FEE7C8
:1000D00000B5FEE738B500F021F8002309480A49C9
:1000E0000A4C02E0E558043315601A188A42F9D325
:1000F000074B084A002100E002C39342FCD300F002
:100100009FF8FEE70000001000000010DC02000075
:10011000000000100401001000B5FEE7154A164863
:10012000D16F164B014310B5D16700221A6401222A
:100130005A64111C586C114A0842FBD0242191606A
:100140008E21890050588024A04350500120DC6843
:100150000A4901220442FAD0032008674A67596F0E
:100160001142FCD0054B02229A67054B00221A610E
:1001700010BDC0460480044080000400008004409C
:100180000000044000B50E22002900D00C220B4BC9
:1001900004215A6103221A60094B1A690A431A6141
:1001A000084B8022D96F92000A43DA67064B072278
:1001B0001A600A225043D86030BF00BD00000240E0
:1001C00000ED00E00480044000800040174B8020D8
:1001D0001A1DD16F10B50143D16715481549412447
:1001E0000860E020644240000C50D16F4020014381
:1001F000D1675968104A08200A405A60596880221D
:10020000D2000A435A60A02380221B06920199580B
:10021000014399508A21890158509C580420044375
:100220009C505850054800F029F810BD008004404B
:100230000400FFFF00C00040FFFBFFFF307500001F
:1002400008B5FFF7C3FF642000F03EF80248002124
:10025000FFF798FF002008BD10270000054B012282
:10026000D96800B5114204D0DA60034B1A68013234
:100270001A6000BD00400040000100100E4B10B598
:10028000191DCC6F8022D2001443CC675C6880219A
:100290008C435C605C6821435960084B0021196005
:1002A000074B802118601868090601431960012175
:1002B0009960044B1A6010BD0080044000010010DA
:1002C0000040004000E100E0034B002200B51A604E
:0C02D0001A688242FCD300BD000100103F
:00000001FF
